:100000000C945E000C9486000C9486000C94860080
:100010000C9486000C9486000C9486000C94860048
:100020000C9486000C9486000C9486000C94860038
:100030000C9486000C9486000C9486000C94860028
:100040000C94FD020C9486000C946D030C944703F1
:100050000C9486000C9486000C9486000C94860008
:100060000C9486000C9486000000000024002700F9
:100070002A0000000000250028002B0004040404CE
:100080000404040402020202020203030303030342
:10009000010204081020408001020408102001021F
:1000A00004081020000000080002010000030407FB
:1000B00000000000000000009F03860511241FBE01
:1000C000CFEFD8E0DEBFCDBF21E0AEE1B1E001C0AF
:1000D0001D92AE3CB207E1F711E0A0E0B1E0ECE424
:1000E000F0E102C005900D92AE31B107D9F710E0F2
:1000F000CDE5D0E004C02197FE010E94FD05CC357E
:10010000D107C9F70E94DA030C9419080C94000077
:1001100090E0FC01EC55FF4F2491FC01E057FF4FAC
:100120003491FC01E458FF4FE491EE23C9F02223FF
:1001300039F0233001F1A8F4213019F1223029F1EE
:10014000F0E0EE0FFF1FEE58FF4FA591B4918FB76F
:10015000F894EC91611126C030953E233C938FBFFB
:1001600008952730A9F02830C9F0243049F780914C
:1001700080008F7D03C0809180008F778093800006
:10018000DFCF84B58F7784BDDBCF84B58F7DFBCF88
:100190008091B0008F778093B000D2CF8091B00073
:1001A0008F7DF9CF3E2BDACF3FB7F89480912301B2
:1001B00090912401A0912501B091260126B5A89B1C
:1001C00005C02F3F19F00196A11DB11D3FBFBA2FE9
:1001D000A92F982F8827BC01CD01620F711D811DA9
:1001E000911D42E0660F771F881F991F4A95D1F72E
:1001F00008958F929F92AF92BF92CF92DF92EF922B
:10020000FF920E94D4004B015C0184E6C82ED12CE1
:10021000E12CF12C0E94D400681979098A099B0904
:10022000683E734081059105A8F321E0C21AD10808
:10023000E108F10888EE880E83E0981EA11CB11C2D
:10024000C114D104E104F10429F7FF90EF90DF908D
:10025000CF90BF90AF909F908F900895AF92BF9234
:10026000CF92DF92EF92FF920F931F93CF93DF9382
:100270006C017B018B01040F151FEB015E01AE18B1
:10028000BF08C017D10759F06991D601ED91FC91D3
:100290000190F081E02DC6010995892B79F7C50100
:1002A000DF91CF911F910F91FF90EF90DF90CF9052
:1002B000BF90AF900895FC01538D448D252F30E001
:1002C000842F90E0821B930B541710F0CF96089563
:1002D00001970895FC01918D828D981761F0A28D90
:1002E000AE0FBF2FB11D5D968C91928D9F5F9F7356
:1002F000928F90E008958FEF9FEF0895FC01918D0C
:10030000828D981731F0828DE80FF11D858D90E078
:1003100008958FEF9FEF0895FC01918D228D892F15
:1003200090E0805C9F4F821B91098F7399270895FD
:1003300087E291E00E948C0121E0892B09F420E002
:10034000822F089580E090E0892B29F00E94980187
:1003500081110C9400000895FC01A48DA80FB92F01
:10036000B11DA35ABF4F2C91848D90E001968F73DD
:100370009927848FA689B7892C93A089B1898C91FC
:10038000837080648C93938D848D981306C002884B
:10039000F389E02D80818F7D80830895EF92FF9215
:1003A0000F931F93CF93DF93EC0181E0888F9B8D98
:1003B0008C8D98131AC0E889F989808185FF15C052
:1003C0009FB7F894EE89FF896083E889F989808175
:1003D0008370806480839FBF81E090E0DF91CF9144
:1003E0001F910F91FF90EF900895F62E0B8D10E066
:1003F0000F5F1F4F0F731127E02E8C8D8E110CC0D5
:100400000FB607FCFACFE889F989808185FFF5CF1F
:10041000CE010E94AC01F1CFEB8DEC0FFD2FF11D51
:10042000E35AFF4FF0829FB7F8940B8FEA89FB895C
:1004300080818062CFCFCF93DF93EC01888D8823BA
:10044000B9F0AA89BB89E889F9898C9185FD03C037
:10045000808186FD0DC00FB607FCF7CF8C9185FF1C
:10046000F2CF808185FFEDCFCE010E94AC01E9CFB4
:10047000DF91CF910895FC0180819181009711F067
:100480000C949F0608950F931F93CF93DF93EC0175
:1004900088819981009759F02A813B812617370777
:1004A00030F081E0DF91CF911F910F9108958B0182
:1004B0006F5F7F4F0E942807009759F099838883C8
:1004C0001B830A832C813D81232B59F7FC01108269
:1004D000E8CF80E0E7CFEF92FF920F931F93CF9387
:1004E000DF93EC017B018A01BA010E94430228815B
:1004F0003981811114C02115310519F0C9010E94FB
:100500009F06198218821D821C821B821A82CE01CC
:10051000DF91CF911F910F91FF90EF9008951D8370
:100520000C83B701C9010E94F907F1CFAF92BF92C6
:10053000CF92DF92EF92FF920F931F93CF93DF93AF
:10054000EC016B015A0179012417350720F48B2D3A
:100550005901E42EF82E198218821B821A821D82FC
:100560001C8250E040E06CE171E0CE010E946B0221
:10057000D60114960D911C91A016B10628F5E0162F
:10058000F10608F48701D601ED91FC911197E00F77
:10059000F11FF08010826D917C916A0D7B1D6115B9
:1005A0007105F1F0FB0101900020E9F73197AF01EF
:1005B000461B570BCE010E946B02F6018081918190
:1005C000080F191FD801FC92CE01DF91CF911F9126
:1005D0000F91FF90EF90DF90CF90BF90AF90089574
:1005E00088819981009711F00E949F0619821882D4
:1005F0001D821C821B821A82E0CF1F920F920FB6BF
:100600000F9211242F933F938F939F93AF93BF9398
:1006100080911F0190912001A0912101B0912201B0
:1006200030911E0123E0230F2D3758F50196A11DAF
:10063000B11D20931E0180931F0190932001A09370
:100640002101B09322018091230190912401A09176
:100650002501B09126010196A11DB11D80932301B2
:1006600090932401A0932501B0932601BF91AF91EF
:100670009F918F913F912F910F900FBE0F901F90E0
:10068000189526E8230F0296A11DB11DD2CF1F9207
:100690000F920FB60F9211242F933F934F935F93B6
:1006A0006F937F938F939F93AF93BF93EF93FF933A
:1006B00087E291E00E94AC01FF91EF91BF91AF9171
:1006C0009F918F917F916F915F914F913F912F916A
:1006D0000F900FBE0F901F9018951F920F920FB69C
:1006E0000F9211242F938F939F93EF93FF93E09199
:1006F0003701F09138018081E0913D01F0913E0198
:1007000082FD1BC09081809140018F5F8F7320918B
:100710004101821741F0E0914001F0E0E95DFE4FB8
:10072000958F80934001FF91EF919F918F912F9131
:100730000F900FBE0F901F9018958081F4CFE7E2C5
:10074000F1E01382128288EE93E0A0E0B0E08483AF
:100750009583A683B7838AE091E09183808385ECBB
:1007600090E09587848784EC90E09787868780EC7B
:1007700090E0918B808B81EC90E0938B828B82EC6C
:1007800090E0958B848B86EC90E0978B868B118E16
:10079000128E138E148EE4ECF1E01182108213821B
:1007A00012821582148250E040E06CE171E0CF01CA
:1007B0000C946B02CF93DF93CDB7DEB762970FB681
:1007C000F894DEBF0FBECDBF789484B5826084BD3F
:1007D00084B5816084BD85B5826085BD85B5816045
:1007E00085BD80916E00816080936E0010928100C3
:1007F000809181008260809381008091810081607E
:10080000809381008091800081608093800080913E
:10081000B10084608093B1008091B00081608093CA
:10082000B00080917A00846080937A0080917A0091
:10083000826080937A0080917A00816080937A0050
:1008400080917A00806880937A001092C100E091D4
:100850003701F091380182E08083E0913301F0911B
:1008600034011082E0913501F091360180E18083FE
:1008700010923F01E0913B01F0913C0186E08083C2
:10088000E0913901F0913A01808180618083E091AB
:100890003901F0913A01808188608083E0913901CB
:1008A000F0913A01808180688083E0913901F09174
:1008B0003A0180818F7D808322E030E0F901E057AA
:1008C000FF4F4491F901E458FF4F8491882399F038
:1008D00090E0880F991FFC01E859FF4FA591B49152
:1008E000FC01EE58FF4F859194918FB7F894EC91ED
:1008F000E42BEC938FBF2F5F3F4F2E303105F1F685
:1009000003E010E061E08DE00E9488000E94F900A1
:1009100060E08DE00E9488000E94F90001501109FA
:1009200089F790E0C92E90E0D92E87E291E00E94ED
:100930008C01181619060CF0DDC087E291E00E94C8
:100940006A018A3009F0B2C01E861D86188A1F8689
:100950001A8A198A6091C4017091C50161157105E7
:1009600041F04091C8015091C901CE010D960E94FD
:100970006B021A8219821C821B821E821D8244E035
:1009800050E068E171E0CE0101960E946B024D815A
:100990005E8189899A898417950770F08D859E8577
:1009A000009751F069817A816115710529F00E94E3
:1009B000000811E0892B09F010E0CE0101960E9499
:1009C0003B02112309F463C0A988BA88A114B104B9
:1009D00009F45DC00D851E856AE370E0C8010E94C0
:1009E000EE077C01E01AF10A892B19F4EE24EA944F
:1009F000FE2CF801EA0DFB1D908010820D851E85EE
:100A00006AE370E0C8010E940E08A00EB11EF50155
:100A100090820097E1F11E141F04CCF52D853E85D0
:100A20008C01021B130B101611068CF5A7014F5FEA
:100A30005F4F9801BE01635F7F4FCE0107960E9412
:100A4000960229893A89A8014F5F5F4FBE01635F13
:100A50007F4FCE0101960E94960289819A8110E013
:100A6000009719F00E948A05162F8F8198850097AC
:100A7000D9F00E948A05862F612F0E948800CE013E
:100A800001960E943B02CE0107960E943B02CE01D6
:100A90000D960E943B0250E040E06CE171E084EC76
:100AA00091E00E946B0241CF80E0E6CF89831A82F9
:100AB0000091C8011091C9010F5F1F4FB80184EC6C
:100AC00091E00E944302882309F42FCF2091C401B2
:100AD0003091C5018091C8019091C901BE016F5F3D
:100AE0007F4F820F931F0E94F9071093C901009353
:100AF000C8011BCFC114D10409F417CF0E9498017B
:100B0000882309F412CF0E9400000FCF84EC91E0FB
:100B10000C943B021F93FC0199278827BC01E894A1
:100B200011911032E9F3193010F01E30C8F31B3266
:100B300051F01D3249F4689406C00E94B105610F5E
:100B4000711D811D911D119110531A30B0F33EF4A7
:100B500090958095709561957F4F8F4F9F4F1F9116
:100B60000895592F482F372F262F660F771F881F7C
:100B7000991F660F771F881F991F620F731F841FAD
:100B8000951F660F771F881F991F08952F923F9218
:100B90004F925F926F927F928F929F92AF92BF928D
:100BA000CF92DF92EF92FF920F931F93CF93DF9339
:100BB000CDB7DEB7CA1BDB0B0FB6F894DEBF0FBE96
:100BC000CDBF09942A88398848885F846E847D84E3
:100BD0008C849B84AA84B984C884DF80EE80FD80E5
:100BE0000C811B81AA81B981CE0FD11D0FB6F8945B
:100BF000DEBF0FBECDBFED010895EE0FFF1F0590C4
:100C0000F491E02D09940F931F93CF93DF938230DB
:100C1000910510F482E090E0E091CC01F091CD01DB
:100C200030E020E0B0E0A0E0309799F421153105E4
:100C300009F44AC0281B390B24303105D8F58A81C4
:100C40009B816115710589F1FB0193838283FE010C
:100C500011C0408151810281138148175907E0F08A
:100C60004817590799F4109761F012960C93129750
:100C700013961C933296CF01DF91CF911F910F9164
:100C800008950093CC011093CD01F4CF21153105C7
:100C900051F04217530738F0A901DB019A01BD0159
:100CA000DF01F801C1CFEF01F9CF9093CD0180931F
:100CB000CC01CDCFFE01E20FF31F8193919322501F
:100CC000310939832883D7CF2091CA013091CB01D4
:100CD000232B41F420910201309103013093CB0189
:100CE0002093CA01209100013091010121153105A5
:100CF00041F42DB73EB74091040150910501241BEA
:100D0000350BE091CA01F091CB01E217F307A0F493
:100D10002E1B3F0B2817390778F0AC014E5F5F4F51
:100D20002417350748F04E0F5F1F5093CB014093B7
:100D3000CA01819391939FCFF0E0E0E09CCFCF93E5
:100D4000DF930097E9F0FC01329713821282A091A1
:100D5000CC01B091CD01ED0130E020E01097A1F47D
:100D600020813181820F931F2091CA013091CB01E4
:100D70002817390709F061C0F093CB01E093CA014D
:100D8000DF91CF910895EA01CE17DF07E8F54A8198
:100D90005B819E0141155105B1F7E901FB83EA83AF
:100DA00049915991C40FD51FEC17FD0761F480815B
:100DB00091810296840F951FE9019983888382812E
:100DC00093819B838A83F0E0E0E012968D919C9161
:100DD00013970097B9F52D913C911197CD0102968B
:100DE000820F931F2091CA013091CB012817390738
:100DF00039F6309751F51092CD011092CC01B09395
:100E0000CB01A093CA01BCCFD383C283408151815F
:100E1000840F951FC817D90761F44E5F5F4F888113
:100E20009981480F591F518340838A819B81938305
:100E300082832115310509F0B0CFF093CD01E09305
:100E4000CC019ECFFD01DC01C0CF13821282D7CF2F
:100E5000B0E0A0E0EEE2F7E00C94C8058C0100974A
:100E600051F4CB010E9403068C01C801CDB7DEB757
:100E7000E0E10C94E405FC01E60FF71F9C01225011
:100E80003109E217F30708F49DC0D901CD91DC9137
:100E90001197C617D70798F0C530D10530F3CE01AA
:100EA00004978617970708F3C61BD70B2297C193A1
:100EB000D1936D937C93CF010E949F06D6CF5B01A7
:100EC000AC1ABD0A4C018C0E9D1EA091CC01B091B4
:100ED000CD01512C412CF12CE12C109731F5809152
:100EE000CA019091CB018815990509F05CC046169E
:100EF000570608F058C080910001909101010097B9
:100F000041F48DB79EB74091040150910501841BB7
:100F1000950BE817F90708F055C0F093CB01E09363
:100F2000CA01F90171836083A0CF8D919C911197C3
:100F300012966C90129713967C901397A815B9058A
:100F400059F56C0142E0C40ED11CCA14DB0420F137
:100F5000AC014A195B09DA011296159780F062829A
:100F6000738251834083D9016D937C93E114F10422
:100F700071F0D7011396FC93EE93129776CF2296D9
:100F80008C0F9D1FF90191838083F301EFCFF093C4
:100F9000CD01E093CC0169CF4816590608F42C0125
:100FA0007D01D3019ACFCB010E9403067C010097FB
:100FB00049F0AE01B8010E94E507C8010E949F06F2
:100FC000870153CF10E000E050CFFB01DC0102C0ED
:100FD00001900D9241505040D8F70895FC01819145
:100FE000861721F08823D9F7992708953197CF01E3
:100FF0000895FB01DC0101900D920020E1F70895B6
:10100000FB01DC014150504030F08D91019080197E
:1010100019F40020B9F7881B990B0895FC0181E0B1
:1010200090E00190061609F4CF010020D1F7019756
:10103000089510E0CDE5D0E004C0FE010E94FD055A
:0C1040002196CE35D107C9F7F894FFCFF8
:10104C000000CE01800000000000CE012E015B01EB
:0E105C001B028C016A017E0150494E3A0000D1
:00000001FF
